{
  "_format": "hh-sol-artifact-1",
  "contractName": "NFT",
  "sourceName": "contracts/NFT.sol",
  "abi": [
    {
      "inputs": [
        {
          "internalType": "string",
          "name": "tokenName",
          "type": "string"
        },
        {
          "internalType": "string",
          "name": "tokenSymbol",
          "type": "string"
        }
      ],
      "stateMutability": "nonpayable",
      "type": "constructor"
    },
    {
      "anonymous": false,
      "inputs": [
        {
          "indexed": true,
          "internalType": "address",
          "name": "owner",
          "type": "address"
        },
        {
          "indexed": true,
          "internalType": "address",
          "name": "approved",
          "type": "address"
        },
        {
          "indexed": true,
          "internalType": "uint256",
          "name": "tokenId",
          "type": "uint256"
        }
      ],
      "name": "Approval",
      "type": "event"
    },
    {
      "anonymous": false,
      "inputs": [
        {
          "indexed": true,
          "internalType": "address",
          "name": "owner",
          "type": "address"
        },
        {
          "indexed": true,
          "internalType": "address",
          "name": "operator",
          "type": "address"
        },
        {
          "indexed": false,
          "internalType": "bool",
          "name": "approved",
          "type": "bool"
        }
      ],
      "name": "ApprovalForAll",
      "type": "event"
    },
    {
      "anonymous": false,
      "inputs": [
        {
          "indexed": true,
          "internalType": "address",
          "name": "previousOwner",
          "type": "address"
        },
        {
          "indexed": true,
          "internalType": "address",
          "name": "newOwner",
          "type": "address"
        }
      ],
      "name": "OwnershipTransferred",
      "type": "event"
    },
    {
      "anonymous": false,
      "inputs": [
        {
          "indexed": true,
          "internalType": "address",
          "name": "from",
          "type": "address"
        },
        {
          "indexed": true,
          "internalType": "address",
          "name": "to",
          "type": "address"
        },
        {
          "indexed": true,
          "internalType": "uint256",
          "name": "tokenId",
          "type": "uint256"
        }
      ],
      "name": "Transfer",
      "type": "event"
    },
    {
      "inputs": [
        {
          "internalType": "address[]",
          "name": "wAddresses",
          "type": "address[]"
        },
        {
          "internalType": "string",
          "name": "tokenURI",
          "type": "string"
        }
      ],
      "name": "airdropNFT",
      "outputs": [],
      "stateMutability": "nonpayable",
      "type": "function"
    },
    {
      "inputs": [
        {
          "internalType": "address",
          "name": "to",
          "type": "address"
        },
        {
          "internalType": "uint256",
          "name": "tokenId",
          "type": "uint256"
        }
      ],
      "name": "approve",
      "outputs": [],
      "stateMutability": "nonpayable",
      "type": "function"
    },
    {
      "inputs": [
        {
          "internalType": "address",
          "name": "owner",
          "type": "address"
        }
      ],
      "name": "balanceOf",
      "outputs": [
        {
          "internalType": "uint256",
          "name": "",
          "type": "uint256"
        }
      ],
      "stateMutability": "view",
      "type": "function"
    },
    {
      "inputs": [
        {
          "internalType": "uint256",
          "name": "tokenId",
          "type": "uint256"
        }
      ],
      "name": "getApproved",
      "outputs": [
        {
          "internalType": "address",
          "name": "",
          "type": "address"
        }
      ],
      "stateMutability": "view",
      "type": "function"
    },
    {
      "inputs": [
        {
          "internalType": "address",
          "name": "owner",
          "type": "address"
        },
        {
          "internalType": "address",
          "name": "operator",
          "type": "address"
        }
      ],
      "name": "isApprovedForAll",
      "outputs": [
        {
          "internalType": "bool",
          "name": "",
          "type": "bool"
        }
      ],
      "stateMutability": "view",
      "type": "function"
    },
    {
      "inputs": [
        {
          "internalType": "address",
          "name": "recipient",
          "type": "address"
        },
        {
          "internalType": "string",
          "name": "tokenURI",
          "type": "string"
        }
      ],
      "name": "mintNFT",
      "outputs": [
        {
          "internalType": "uint256",
          "name": "",
          "type": "uint256"
        }
      ],
      "stateMutability": "nonpayable",
      "type": "function"
    },
    {
      "inputs": [],
      "name": "name",
      "outputs": [
        {
          "internalType": "string",
          "name": "",
          "type": "string"
        }
      ],
      "stateMutability": "view",
      "type": "function"
    },
    {
      "inputs": [],
      "name": "owner",
      "outputs": [
        {
          "internalType": "address",
          "name": "",
          "type": "address"
        }
      ],
      "stateMutability": "view",
      "type": "function"
    },
    {
      "inputs": [
        {
          "internalType": "uint256",
          "name": "tokenId",
          "type": "uint256"
        }
      ],
      "name": "ownerOf",
      "outputs": [
        {
          "internalType": "address",
          "name": "",
          "type": "address"
        }
      ],
      "stateMutability": "view",
      "type": "function"
    },
    {
      "inputs": [],
      "name": "renounceOwnership",
      "outputs": [],
      "stateMutability": "nonpayable",
      "type": "function"
    },
    {
      "inputs": [
        {
          "internalType": "address",
          "name": "from",
          "type": "address"
        },
        {
          "internalType": "address",
          "name": "to",
          "type": "address"
        },
        {
          "internalType": "uint256",
          "name": "tokenId",
          "type": "uint256"
        }
      ],
      "name": "safeTransferFrom",
      "outputs": [],
      "stateMutability": "nonpayable",
      "type": "function"
    },
    {
      "inputs": [
        {
          "internalType": "address",
          "name": "from",
          "type": "address"
        },
        {
          "internalType": "address",
          "name": "to",
          "type": "address"
        },
        {
          "internalType": "uint256",
          "name": "tokenId",
          "type": "uint256"
        },
        {
          "internalType": "bytes",
          "name": "data",
          "type": "bytes"
        }
      ],
      "name": "safeTransferFrom",
      "outputs": [],
      "stateMutability": "nonpayable",
      "type": "function"
    },
    {
      "inputs": [
        {
          "internalType": "address",
          "name": "operator",
          "type": "address"
        },
        {
          "internalType": "bool",
          "name": "approved",
          "type": "bool"
        }
      ],
      "name": "setApprovalForAll",
      "outputs": [],
      "stateMutability": "nonpayable",
      "type": "function"
    },
    {
      "inputs": [
        {
          "internalType": "bytes4",
          "name": "interfaceId",
          "type": "bytes4"
        }
      ],
      "name": "supportsInterface",
      "outputs": [
        {
          "internalType": "bool",
          "name": "",
          "type": "bool"
        }
      ],
      "stateMutability": "view",
      "type": "function"
    },
    {
      "inputs": [],
      "name": "symbol",
      "outputs": [
        {
          "internalType": "string",
          "name": "",
          "type": "string"
        }
      ],
      "stateMutability": "view",
      "type": "function"
    },
    {
      "inputs": [
        {
          "internalType": "uint256",
          "name": "tokenId",
          "type": "uint256"
        }
      ],
      "name": "tokenURI",
      "outputs": [
        {
          "internalType": "string",
          "name": "",
          "type": "string"
        }
      ],
      "stateMutability": "view",
      "type": "function"
    },
    {
      "inputs": [
        {
          "internalType": "address",
          "name": "from",
          "type": "address"
        },
        {
          "internalType": "address",
          "name": "to",
          "type": "address"
        },
        {
          "internalType": "uint256",
          "name": "tokenId",
          "type": "uint256"
        }
      ],
      "name": "transferFrom",
      "outputs": [],
      "stateMutability": "nonpayable",
      "type": "function"
    },
    {
      "inputs": [
        {
          "internalType": "address",
          "name": "newOwner",
          "type": "address"
        }
      ],
      "name": "transferOwnership",
      "outputs": [],
      "stateMutability": "nonpayable",
      "type": "function"
    }
  ],
  "bytecode": "0x60806040523480156200001157600080fd5b5060405162001b4238038062001b42833981016040819052620000349162000251565b8151829082906200004d906000906020850190620000de565b50805162000063906001906020840190620000de565b505050620000806200007a6200008860201b60201c565b6200008c565b5050620002f8565b3390565b600780546001600160a01b038381166001600160a01b0319831681179093556040519116919082907f8be0079c531659141344cd1fd0a4f28419497f9722a3daafe3b4186f6b6457e090600090a35050565b828054620000ec90620002bb565b90600052602060002090601f0160209004810192826200011057600085556200015b565b82601f106200012b57805160ff19168380011785556200015b565b828001600101855582156200015b579182015b828111156200015b5782518255916020019190600101906200013e565b50620001699291506200016d565b5090565b5b808211156200016957600081556001016200016e565b634e487b7160e01b600052604160045260246000fd5b600082601f830112620001ac57600080fd5b81516001600160401b0380821115620001c957620001c962000184565b604051601f8301601f19908116603f01168101908282118183101715620001f457620001f462000184565b816040528381526020925086838588010111156200021157600080fd5b600091505b8382101562000235578582018301518183018401529082019062000216565b83821115620002475760008385830101525b9695505050505050565b600080604083850312156200026557600080fd5b82516001600160401b03808211156200027d57600080fd5b6200028b868387016200019a565b93506020850151915080821115620002a257600080fd5b50620002b1858286016200019a565b9150509250929050565b600181811c90821680620002d057607f821691505b60208210811415620002f257634e487b7160e01b600052602260045260246000fd5b50919050565b61183a80620003086000396000f3fe608060405234801561001057600080fd5b50600436106101165760003560e01c8063715018a6116100a2578063b88d4fde11610071578063b88d4fde14610239578063c87b56dd1461024c578063e985e9c51461025f578063eacabe141461029b578063f2fde38b146102ae57600080fd5b8063715018a6146102055780638da5cb5b1461020d57806395d89b411461021e578063a22cb4651461022657600080fd5b806323b872dd116100e957806323b872dd1461019857806342842e0e146101ab57806343012ec2146101be5780636352211e146101d157806370a08231146101e457600080fd5b806301ffc9a71461011b57806306fdde0314610143578063081812fc14610158578063095ea7b314610183575b600080fd5b61012e610129366004611232565b6102c1565b60405190151581526020015b60405180910390f35b61014b610313565b60405161013a91906112a7565b61016b6101663660046112ba565b6103a5565b6040516001600160a01b03909116815260200161013a565b6101966101913660046112ef565b6103cc565b005b6101966101a6366004611319565b6104e7565b6101966101b9366004611319565b610518565b6101966101cc366004611401565b610533565b61016b6101df3660046112ba565b61058f565b6101f76101f2366004611498565b6105ef565b60405190815260200161013a565b610196610675565b6007546001600160a01b031661016b565b61014b610689565b6101966102343660046114b3565b610698565b6101966102473660046114ef565b6106a7565b61014b61025a3660046112ba565b6106d9565b61012e61026d36600461156b565b6001600160a01b03918216600090815260056020908152604080832093909416825291909152205460ff1690565b6101f76102a936600461159e565b6107ea565b6101966102bc366004611498565b61082a565b60006001600160e01b031982166380ac58cd60e01b14806102f257506001600160e01b03198216635b5e139f60e01b145b8061030d57506301ffc9a760e01b6001600160e01b03198316145b92915050565b606060008054610322906115ec565b80601f016020809104026020016040519081016040528092919081815260200182805461034e906115ec565b801561039b5780601f106103705761010080835404028352916020019161039b565b820191906000526020600020905b81548152906001019060200180831161037e57829003601f168201915b5050505050905090565b60006103b0826108a3565b506000908152600460205260409020546001600160a01b031690565b60006103d78261058f565b9050806001600160a01b0316836001600160a01b0316141561044a5760405162461bcd60e51b815260206004820152602160248201527f4552433732313a20617070726f76616c20746f2063757272656e74206f776e656044820152603960f91b60648201526084015b60405180910390fd5b336001600160a01b03821614806104665750610466813361026d565b6104d85760405162461bcd60e51b815260206004820152603e60248201527f4552433732313a20617070726f76652063616c6c6572206973206e6f7420746f60448201527f6b656e206f776e6572206e6f7220617070726f76656420666f7220616c6c00006064820152608401610441565b6104e28383610902565b505050565b6104f13382610970565b61050d5760405162461bcd60e51b815260040161044190611627565b6104e28383836109ee565b6104e2838383604051806020016040528060008152506106a7565b61053b610b8a565b60005b828110156105895761057684848381811061055b5761055b611675565b90506020020160208101906105709190611498565b836107ea565b5080610581816116a1565b91505061053e565b50505050565b6000818152600260205260408120546001600160a01b03168061030d5760405162461bcd60e51b8152602060048201526018602482015277115490cdcc8c4e881a5b9d985b1a59081d1bdad95b88125160421b6044820152606401610441565b60006001600160a01b0382166106595760405162461bcd60e51b815260206004820152602960248201527f4552433732313a2061646472657373207a65726f206973206e6f7420612076616044820152683634b21037bbb732b960b91b6064820152608401610441565b506001600160a01b031660009081526003602052604090205490565b61067d610b8a565b6106876000610be4565b565b606060018054610322906115ec565b6106a3338383610c36565b5050565b6106b13383610970565b6106cd5760405162461bcd60e51b815260040161044190611627565b61058984848484610d05565b60606106e4826108a3565b600082815260066020526040812080546106fd906115ec565b80601f0160208091040260200160405190810160405280929190818152602001828054610729906115ec565b80156107765780601f1061074b57610100808354040283529160200191610776565b820191906000526020600020905b81548152906001019060200180831161075957829003601f168201915b50505050509050600061079460408051602081019091526000815290565b90508051600014156107a7575092915050565b8151156107d95780826040516020016107c19291906116bc565b60405160208183030381529060405292505050919050565b6107e284610d38565b949350505050565b60006107f4610b8a565b610802600880546001019055565b600061080d60085490565b90506108198482610dab565b6108238184610eed565b9392505050565b610832610b8a565b6001600160a01b0381166108975760405162461bcd60e51b815260206004820152602660248201527f4f776e61626c653a206e6577206f776e657220697320746865207a65726f206160448201526564647265737360d01b6064820152608401610441565b6108a081610be4565b50565b6000818152600260205260409020546001600160a01b03166108a05760405162461bcd60e51b8152602060048201526018602482015277115490cdcc8c4e881a5b9d985b1a59081d1bdad95b88125160421b6044820152606401610441565b600081815260046020526040902080546001600160a01b0319166001600160a01b03841690811790915581906109378261058f565b6001600160a01b03167f8c5be1e5ebec7d5bd14f71427d1e84f3dd0314c0f7b2291e5b200ac8c7c3b92560405160405180910390a45050565b60008061097c8361058f565b9050806001600160a01b0316846001600160a01b031614806109c357506001600160a01b0380821660009081526005602090815260408083209388168352929052205460ff165b806107e25750836001600160a01b03166109dc846103a5565b6001600160a01b031614949350505050565b826001600160a01b0316610a018261058f565b6001600160a01b031614610a655760405162461bcd60e51b815260206004820152602560248201527f4552433732313a207472616e736665722066726f6d20696e636f72726563742060448201526437bbb732b960d91b6064820152608401610441565b6001600160a01b038216610ac75760405162461bcd60e51b8152602060048201526024808201527f4552433732313a207472616e7366657220746f20746865207a65726f206164646044820152637265737360e01b6064820152608401610441565b610ad2600082610902565b6001600160a01b0383166000908152600360205260408120805460019290610afb9084906116eb565b90915550506001600160a01b0382166000908152600360205260408120805460019290610b29908490611702565b909155505060008181526002602052604080822080546001600160a01b0319166001600160a01b0386811691821790925591518493918716917fddf252ad1be2c89b69c2b068fc378daa952ba7f163c4a11628f55a4df523b3ef91a4505050565b6007546001600160a01b031633146106875760405162461bcd60e51b815260206004820181905260248201527f4f776e61626c653a2063616c6c6572206973206e6f7420746865206f776e65726044820152606401610441565b600780546001600160a01b038381166001600160a01b0319831681179093556040519116919082907f8be0079c531659141344cd1fd0a4f28419497f9722a3daafe3b4186f6b6457e090600090a35050565b816001600160a01b0316836001600160a01b03161415610c985760405162461bcd60e51b815260206004820152601960248201527f4552433732313a20617070726f766520746f2063616c6c6572000000000000006044820152606401610441565b6001600160a01b03838116600081815260056020908152604080832094871680845294825291829020805460ff191686151590811790915591519182527f17307eab39ab6107e8899845ad3d59bd9653f200f220920489ca2b5937696c31910160405180910390a3505050565b610d108484846109ee565b610d1c84848484610f87565b6105895760405162461bcd60e51b81526004016104419061171a565b6060610d43826108a3565b6000610d5a60408051602081019091526000815290565b90506000815111610d7a5760405180602001604052806000815250610823565b80610d8484611085565b604051602001610d959291906116bc565b6040516020818303038152906040529392505050565b6001600160a01b038216610e015760405162461bcd60e51b815260206004820181905260248201527f4552433732313a206d696e7420746f20746865207a65726f20616464726573736044820152606401610441565b6000818152600260205260409020546001600160a01b031615610e665760405162461bcd60e51b815260206004820152601c60248201527f4552433732313a20746f6b656e20616c7265616479206d696e746564000000006044820152606401610441565b6001600160a01b0382166000908152600360205260408120805460019290610e8f908490611702565b909155505060008181526002602052604080822080546001600160a01b0319166001600160a01b03861690811790915590518392907fddf252ad1be2c89b69c2b068fc378daa952ba7f163c4a11628f55a4df523b3ef908290a45050565b6000828152600260205260409020546001600160a01b0316610f685760405162461bcd60e51b815260206004820152602e60248201527f45524337323155524953746f726167653a2055524920736574206f66206e6f6e60448201526d32bc34b9ba32b73a103a37b5b2b760911b6064820152608401610441565b600082815260066020908152604090912082516104e292840190611183565b60006001600160a01b0384163b1561107a57604051630a85bd0160e11b81526001600160a01b0385169063150b7a0290610fcb90339089908890889060040161176c565b6020604051808303816000875af1925050508015611006575060408051601f3d908101601f19168201909252611003918101906117a9565b60015b611060573d808015611034576040519150601f19603f3d011682016040523d82523d6000602084013e611039565b606091505b5080516110585760405162461bcd60e51b81526004016104419061171a565b805181602001fd5b6001600160e01b031916630a85bd0160e11b1490506107e2565b506001949350505050565b6060816110a95750506040805180820190915260018152600360fc1b602082015290565b8160005b81156110d357806110bd816116a1565b91506110cc9050600a836117dc565b91506110ad565b60008167ffffffffffffffff8111156110ee576110ee611355565b6040519080825280601f01601f191660200182016040528015611118576020820181803683370190505b5090505b84156107e25761112d6001836116eb565b915061113a600a866117f0565b611145906030611702565b60f81b81838151811061115a5761115a611675565b60200101906001600160f81b031916908160001a90535061117c600a866117dc565b945061111c565b82805461118f906115ec565b90600052602060002090601f0160209004810192826111b157600085556111f7565b82601f106111ca57805160ff19168380011785556111f7565b828001600101855582156111f7579182015b828111156111f75782518255916020019190600101906111dc565b50611203929150611207565b5090565b5b808211156112035760008155600101611208565b6001600160e01b0319811681146108a057600080fd5b60006020828403121561124457600080fd5b81356108238161121c565b60005b8381101561126a578181015183820152602001611252565b838111156105895750506000910152565b6000815180845261129381602086016020860161124f565b601f01601f19169290920160200192915050565b602081526000610823602083018461127b565b6000602082840312156112cc57600080fd5b5035919050565b80356001600160a01b03811681146112ea57600080fd5b919050565b6000806040838503121561130257600080fd5b61130b836112d3565b946020939093013593505050565b60008060006060848603121561132e57600080fd5b611337846112d3565b9250611345602085016112d3565b9150604084013590509250925092565b634e487b7160e01b600052604160045260246000fd5b600067ffffffffffffffff8084111561138657611386611355565b604051601f8501601f19908116603f011681019082821181831017156113ae576113ae611355565b816040528093508581528686860111156113c757600080fd5b858560208301376000602087830101525050509392505050565b600082601f8301126113f257600080fd5b6108238383356020850161136b565b60008060006040848603121561141657600080fd5b833567ffffffffffffffff8082111561142e57600080fd5b818601915086601f83011261144257600080fd5b81358181111561145157600080fd5b8760208260051b850101111561146657600080fd5b60209283019550935090850135908082111561148157600080fd5b5061148e868287016113e1565b9150509250925092565b6000602082840312156114aa57600080fd5b610823826112d3565b600080604083850312156114c657600080fd5b6114cf836112d3565b9150602083013580151581146114e457600080fd5b809150509250929050565b6000806000806080858703121561150557600080fd5b61150e856112d3565b935061151c602086016112d3565b925060408501359150606085013567ffffffffffffffff81111561153f57600080fd5b8501601f8101871361155057600080fd5b61155f8782356020840161136b565b91505092959194509250565b6000806040838503121561157e57600080fd5b611587836112d3565b9150611595602084016112d3565b90509250929050565b600080604083850312156115b157600080fd5b6115ba836112d3565b9150602083013567ffffffffffffffff8111156115d657600080fd5b6115e2858286016113e1565b9150509250929050565b600181811c9082168061160057607f821691505b6020821081141561162157634e487b7160e01b600052602260045260246000fd5b50919050565b6020808252602e908201527f4552433732313a2063616c6c6572206973206e6f7420746f6b656e206f776e6560408201526d1c881b9bdc88185c1c1c9bdd995960921b606082015260800190565b634e487b7160e01b600052603260045260246000fd5b634e487b7160e01b600052601160045260246000fd5b60006000198214156116b5576116b561168b565b5060010190565b600083516116ce81846020880161124f565b8351908301906116e281836020880161124f565b01949350505050565b6000828210156116fd576116fd61168b565b500390565b600082198211156117155761171561168b565b500190565b60208082526032908201527f4552433732313a207472616e7366657220746f206e6f6e20455243373231526560408201527131b2b4bb32b91034b6b83632b6b2b73a32b960711b606082015260800190565b6001600160a01b038581168252841660208201526040810183905260806060820181905260009061179f9083018461127b565b9695505050505050565b6000602082840312156117bb57600080fd5b81516108238161121c565b634e487b7160e01b600052601260045260246000fd5b6000826117eb576117eb6117c6565b500490565b6000826117ff576117ff6117c6565b50069056fea2646970667358221220510326bf4ca11ba48cf6080e769fbf8947327b88994dff2ad9b7e7326549cde964736f6c634300080c0033",
  "linkReferences": {},
  "deployedLinkReferences": {}
}