{
  "_format": "hh-sol-artifact-1",
  "contractName": "GiftCardNFT",
  "sourceName": "contracts/GiftCardNFT.sol",
  "abi": [
    {
      "inputs": [
        {
          "internalType": "string",
          "name": "uri",
          "type": "string"
        },
        {
          "internalType": "string",
          "name": "giftCardName",
          "type": "string"
        },
        {
          "internalType": "string",
          "name": "giftCardSymbol",
          "type": "string"
        }
      ],
      "stateMutability": "nonpayable",
      "type": "constructor"
    },
    {
      "anonymous": false,
      "inputs": [
        {
          "indexed": true,
          "internalType": "address",
          "name": "owner",
          "type": "address"
        },
        {
          "indexed": true,
          "internalType": "address",
          "name": "approved",
          "type": "address"
        },
        {
          "indexed": true,
          "internalType": "uint256",
          "name": "tokenId",
          "type": "uint256"
        }
      ],
      "name": "Approval",
      "type": "event"
    },
    {
      "anonymous": false,
      "inputs": [
        {
          "indexed": true,
          "internalType": "address",
          "name": "owner",
          "type": "address"
        },
        {
          "indexed": true,
          "internalType": "address",
          "name": "operator",
          "type": "address"
        },
        {
          "indexed": false,
          "internalType": "bool",
          "name": "approved",
          "type": "bool"
        }
      ],
      "name": "ApprovalForAll",
      "type": "event"
    },
    {
      "anonymous": false,
      "inputs": [
        {
          "indexed": false,
          "internalType": "uint8",
          "name": "version",
          "type": "uint8"
        }
      ],
      "name": "Initialized",
      "type": "event"
    },
    {
      "anonymous": false,
      "inputs": [
        {
          "indexed": true,
          "internalType": "address",
          "name": "previousOwner",
          "type": "address"
        },
        {
          "indexed": true,
          "internalType": "address",
          "name": "newOwner",
          "type": "address"
        }
      ],
      "name": "OwnershipTransferred",
      "type": "event"
    },
    {
      "anonymous": false,
      "inputs": [
        {
          "indexed": true,
          "internalType": "address",
          "name": "from",
          "type": "address"
        },
        {
          "indexed": true,
          "internalType": "address",
          "name": "to",
          "type": "address"
        },
        {
          "indexed": true,
          "internalType": "uint256",
          "name": "tokenId",
          "type": "uint256"
        }
      ],
      "name": "Transfer",
      "type": "event"
    },
    {
      "inputs": [
        {
          "internalType": "address",
          "name": "to",
          "type": "address"
        },
        {
          "internalType": "uint256",
          "name": "tokenId",
          "type": "uint256"
        }
      ],
      "name": "approve",
      "outputs": [],
      "stateMutability": "nonpayable",
      "type": "function"
    },
    {
      "inputs": [
        {
          "internalType": "address",
          "name": "owner",
          "type": "address"
        }
      ],
      "name": "balanceOf",
      "outputs": [
        {
          "internalType": "uint256",
          "name": "",
          "type": "uint256"
        }
      ],
      "stateMutability": "view",
      "type": "function"
    },
    {
      "inputs": [
        {
          "internalType": "uint256",
          "name": "tokenId",
          "type": "uint256"
        }
      ],
      "name": "burn",
      "outputs": [],
      "stateMutability": "nonpayable",
      "type": "function"
    },
    {
      "inputs": [
        {
          "internalType": "uint256",
          "name": "tokenId",
          "type": "uint256"
        }
      ],
      "name": "getApproved",
      "outputs": [
        {
          "internalType": "address",
          "name": "",
          "type": "address"
        }
      ],
      "stateMutability": "view",
      "type": "function"
    },
    {
      "inputs": [
        {
          "internalType": "uint256",
          "name": "index",
          "type": "uint256"
        }
      ],
      "name": "getGiftCardByIndex",
      "outputs": [
        {
          "components": [
            {
              "internalType": "uint256",
              "name": "tokenId",
              "type": "uint256"
            },
            {
              "internalType": "uint256",
              "name": "amount",
              "type": "uint256"
            },
            {
              "internalType": "string",
              "name": "imageDataUrl",
              "type": "string"
            },
            {
              "internalType": "string",
              "name": "message",
              "type": "string"
            },
            {
              "internalType": "string",
              "name": "signedBy",
              "type": "string"
            },
            {
              "internalType": "address",
              "name": "mintedBy",
              "type": "address"
            },
            {
              "internalType": "bool",
              "name": "isUnwrapped",
              "type": "bool"
            },
            {
              "internalType": "bool",
              "name": "isBurnt",
              "type": "bool"
            },
            {
              "internalType": "uint256",
              "name": "timestamp",
              "type": "uint256"
            },
            {
              "internalType": "bool",
              "name": "isInitialized",
              "type": "bool"
            }
          ],
          "internalType": "struct GiftCardNFT.GiftCard",
          "name": "",
          "type": "tuple"
        }
      ],
      "stateMutability": "view",
      "type": "function"
    },
    {
      "inputs": [
        {
          "internalType": "uint256",
          "name": "tokenId",
          "type": "uint256"
        },
        {
          "internalType": "address",
          "name": "owner",
          "type": "address"
        }
      ],
      "name": "getGiftCardOfOwnerByAdmin",
      "outputs": [
        {
          "components": [
            {
              "internalType": "uint256",
              "name": "tokenId",
              "type": "uint256"
            },
            {
              "internalType": "uint256",
              "name": "amount",
              "type": "uint256"
            },
            {
              "internalType": "string",
              "name": "imageDataUrl",
              "type": "string"
            },
            {
              "internalType": "string",
              "name": "message",
              "type": "string"
            },
            {
              "internalType": "string",
              "name": "signedBy",
              "type": "string"
            },
            {
              "internalType": "address",
              "name": "mintedBy",
              "type": "address"
            },
            {
              "internalType": "bool",
              "name": "isUnwrapped",
              "type": "bool"
            },
            {
              "internalType": "bool",
              "name": "isBurnt",
              "type": "bool"
            },
            {
              "internalType": "uint256",
              "name": "timestamp",
              "type": "uint256"
            },
            {
              "internalType": "bool",
              "name": "isInitialized",
              "type": "bool"
            }
          ],
          "internalType": "struct GiftCardNFT.GiftCard",
          "name": "",
          "type": "tuple"
        }
      ],
      "stateMutability": "view",
      "type": "function"
    },
    {
      "inputs": [
        {
          "internalType": "uint256",
          "name": "index",
          "type": "uint256"
        }
      ],
      "name": "getSentGiftCardByIndex",
      "outputs": [
        {
          "components": [
            {
              "internalType": "uint256",
              "name": "tokenId",
              "type": "uint256"
            },
            {
              "internalType": "uint256",
              "name": "amount",
              "type": "uint256"
            },
            {
              "internalType": "string",
              "name": "imageDataUrl",
              "type": "string"
            },
            {
              "internalType": "string",
              "name": "message",
              "type": "string"
            },
            {
              "internalType": "string",
              "name": "signedBy",
              "type": "string"
            },
            {
              "internalType": "address",
              "name": "mintedBy",
              "type": "address"
            },
            {
              "internalType": "bool",
              "name": "isUnwrapped",
              "type": "bool"
            },
            {
              "internalType": "bool",
              "name": "isBurnt",
              "type": "bool"
            },
            {
              "internalType": "uint256",
              "name": "timestamp",
              "type": "uint256"
            },
            {
              "internalType": "bool",
              "name": "isInitialized",
              "type": "bool"
            }
          ],
          "internalType": "struct GiftCardNFT.GiftCard",
          "name": "",
          "type": "tuple"
        }
      ],
      "stateMutability": "view",
      "type": "function"
    },
    {
      "inputs": [
        {
          "internalType": "string",
          "name": "uri",
          "type": "string"
        },
        {
          "internalType": "string",
          "name": "giftCardName",
          "type": "string"
        },
        {
          "internalType": "string",
          "name": "giftCardSymbol",
          "type": "string"
        }
      ],
      "name": "initialize",
      "outputs": [],
      "stateMutability": "nonpayable",
      "type": "function"
    },
    {
      "inputs": [
        {
          "internalType": "address",
          "name": "owner",
          "type": "address"
        },
        {
          "internalType": "address",
          "name": "operator",
          "type": "address"
        }
      ],
      "name": "isApprovedForAll",
      "outputs": [
        {
          "internalType": "bool",
          "name": "",
          "type": "bool"
        }
      ],
      "stateMutability": "view",
      "type": "function"
    },
    {
      "inputs": [],
      "name": "lengthOfSentGiftCards",
      "outputs": [
        {
          "internalType": "uint256",
          "name": "",
          "type": "uint256"
        }
      ],
      "stateMutability": "view",
      "type": "function"
    },
    {
      "inputs": [],
      "name": "name",
      "outputs": [
        {
          "internalType": "string",
          "name": "",
          "type": "string"
        }
      ],
      "stateMutability": "view",
      "type": "function"
    },
    {
      "inputs": [],
      "name": "owner",
      "outputs": [
        {
          "internalType": "address",
          "name": "",
          "type": "address"
        }
      ],
      "stateMutability": "view",
      "type": "function"
    },
    {
      "inputs": [
        {
          "internalType": "uint256",
          "name": "tokenId",
          "type": "uint256"
        }
      ],
      "name": "ownerOf",
      "outputs": [
        {
          "internalType": "address",
          "name": "",
          "type": "address"
        }
      ],
      "stateMutability": "view",
      "type": "function"
    },
    {
      "inputs": [],
      "name": "renounceOwnership",
      "outputs": [],
      "stateMutability": "nonpayable",
      "type": "function"
    },
    {
      "inputs": [
        {
          "internalType": "address",
          "name": "to",
          "type": "address"
        },
        {
          "internalType": "string",
          "name": "imageDataUrl",
          "type": "string"
        },
        {
          "internalType": "string",
          "name": "message",
          "type": "string"
        },
        {
          "internalType": "string",
          "name": "signedBy",
          "type": "string"
        }
      ],
      "name": "safeMint",
      "outputs": [],
      "stateMutability": "payable",
      "type": "function"
    },
    {
      "inputs": [
        {
          "internalType": "address",
          "name": "from",
          "type": "address"
        },
        {
          "internalType": "address",
          "name": "to",
          "type": "address"
        },
        {
          "internalType": "uint256",
          "name": "tokenId",
          "type": "uint256"
        }
      ],
      "name": "safeTransferFrom",
      "outputs": [],
      "stateMutability": "nonpayable",
      "type": "function"
    },
    {
      "inputs": [
        {
          "internalType": "address",
          "name": "from",
          "type": "address"
        },
        {
          "internalType": "address",
          "name": "to",
          "type": "address"
        },
        {
          "internalType": "uint256",
          "name": "tokenId",
          "type": "uint256"
        },
        {
          "internalType": "bytes",
          "name": "data",
          "type": "bytes"
        }
      ],
      "name": "safeTransferFrom",
      "outputs": [],
      "stateMutability": "nonpayable",
      "type": "function"
    },
    {
      "inputs": [
        {
          "internalType": "address",
          "name": "operator",
          "type": "address"
        },
        {
          "internalType": "bool",
          "name": "approved",
          "type": "bool"
        }
      ],
      "name": "setApprovalForAll",
      "outputs": [],
      "stateMutability": "nonpayable",
      "type": "function"
    },
    {
      "inputs": [
        {
          "internalType": "bytes4",
          "name": "interfaceId",
          "type": "bytes4"
        }
      ],
      "name": "supportsInterface",
      "outputs": [
        {
          "internalType": "bool",
          "name": "",
          "type": "bool"
        }
      ],
      "stateMutability": "view",
      "type": "function"
    },
    {
      "inputs": [],
      "name": "symbol",
      "outputs": [
        {
          "internalType": "string",
          "name": "",
          "type": "string"
        }
      ],
      "stateMutability": "view",
      "type": "function"
    },
    {
      "inputs": [
        {
          "internalType": "uint256",
          "name": "index",
          "type": "uint256"
        }
      ],
      "name": "tokenByIndex",
      "outputs": [
        {
          "internalType": "uint256",
          "name": "",
          "type": "uint256"
        }
      ],
      "stateMutability": "view",
      "type": "function"
    },
    {
      "inputs": [
        {
          "internalType": "address",
          "name": "owner",
          "type": "address"
        },
        {
          "internalType": "uint256",
          "name": "index",
          "type": "uint256"
        }
      ],
      "name": "tokenOfOwnerByIndex",
      "outputs": [
        {
          "internalType": "uint256",
          "name": "",
          "type": "uint256"
        }
      ],
      "stateMutability": "view",
      "type": "function"
    },
    {
      "inputs": [
        {
          "internalType": "uint256",
          "name": "tokenId",
          "type": "uint256"
        }
      ],
      "name": "tokenURI",
      "outputs": [
        {
          "internalType": "string",
          "name": "",
          "type": "string"
        }
      ],
      "stateMutability": "view",
      "type": "function"
    },
    {
      "inputs": [],
      "name": "totalSupply",
      "outputs": [
        {
          "internalType": "uint256",
          "name": "",
          "type": "uint256"
        }
      ],
      "stateMutability": "view",
      "type": "function"
    },
    {
      "inputs": [
        {
          "internalType": "address",
          "name": "from",
          "type": "address"
        },
        {
          "internalType": "address",
          "name": "to",
          "type": "address"
        },
        {
          "internalType": "uint256",
          "name": "tokenId",
          "type": "uint256"
        }
      ],
      "name": "transferFrom",
      "outputs": [],
      "stateMutability": "nonpayable",
      "type": "function"
    },
    {
      "inputs": [
        {
          "internalType": "address",
          "name": "newOwner",
          "type": "address"
        }
      ],
      "name": "transferOwnership",
      "outputs": [],
      "stateMutability": "nonpayable",
      "type": "function"
    },
    {
      "inputs": [
        {
          "internalType": "uint256",
          "name": "tokenId",
          "type": "uint256"
        }
      ],
      "name": "unwrapGiftCard",
      "outputs": [],
      "stateMutability": "nonpayable",
      "type": "function"
    },
    {
      "inputs": [
        {
          "internalType": "uint256",
          "name": "tokenId",
          "type": "uint256"
        },
        {
          "internalType": "address",
          "name": "owner",
          "type": "address"
        },
        {
          "internalType": "uint256",
          "name": "txFee",
          "type": "uint256"
        }
      ],
      "name": "unwrapGiftCardByAdmin",
      "outputs": [],
      "stateMutability": "nonpayable",
      "type": "function"
    }
  ],
  "bytecode": "0x60806040523480156200001157600080fd5b5060405162002df138038062002df183398101604081905262000034916200023e565b600054610100900460ff1615808015620000555750600054600160ff909116105b8062000085575062000072306200016260201b620011891760201c565b15801562000085575060005460ff166001145b620000ed5760405162461bcd60e51b815260206004820152602e60248201527f496e697469616c697a61626c653a20636f6e747261637420697320616c72656160448201526d191e481a5b9a5d1a585b1a5e995960921b606482015260840160405180910390fd5b6000805460ff19166001179055801562000111576000805461ff0019166101001790555b801562000158576000805461ff0019169055604051600181527f7f26b83ff96e1f2b6a682f133852f6798a09c465da95921460cefb38474024989060200160405180910390a15b50505050620002cf565b6001600160a01b03163b151590565b634e487b7160e01b600052604160045260246000fd5b600082601f8301126200019957600080fd5b81516001600160401b0380821115620001b657620001b662000171565b604051601f8301601f19908116603f01168101908282118183101715620001e157620001e162000171565b81604052838152602092508683858801011115620001fe57600080fd5b600091505b8382101562000222578582018301518183018401529082019062000203565b83821115620002345760008385830101525b9695505050505050565b6000806000606084860312156200025457600080fd5b83516001600160401b03808211156200026c57600080fd5b6200027a8783880162000187565b945060208601519150808211156200029157600080fd5b6200029f8783880162000187565b93506040860151915080821115620002b657600080fd5b50620002c58682870162000187565b9150509250925092565b612b1280620002df6000396000f3fe6080604052600436106101b75760003560e01c80636352211e116100ec578063a22cb4651161008a578063c87b56dd11610064578063c87b56dd146104d4578063e985e9c5146104f4578063f2fde38b1461053d578063fdc87f2f1461055d57600080fd5b8063a22cb46514610474578063a6487c5314610494578063b88d4fde146104b457600080fd5b806379bf0e72116100c657806379bf0e72146104015780638da5cb5b1461042157806395d89b411461043f57806397f960fc1461045457600080fd5b80636352211e146103ac57806370a08231146103cc578063715018a6146103ec57600080fd5b80631de92f621161015957806342842e0e1161013357806342842e0e1461032c57806342966c681461034c5780634f6ccce71461036c5780635a71fcde1461038c57600080fd5b80631de92f62146102bf57806323b872dd146102ec5780632f745c591461030c57600080fd5b8063081812fc11610195578063081812fc14610228578063095ea7b3146102605780630a3d26c71461028057806318160ddd146102a057600080fd5b806301ffc9a7146101bc57806303a80dfb146101f157806306fdde0314610206575b600080fd5b3480156101c857600080fd5b506101dc6101d7366004612362565b610580565b60405190151581526020015b60405180910390f35b6102046101ff366004612447565b610591565b005b34801561021257600080fd5b5061021b61079b565b6040516101e89190612538565b34801561023457600080fd5b5061024861024336600461254b565b61082d565b6040516001600160a01b0390911681526020016101e8565b34801561026c57600080fd5b5061020461027b366004612564565b610854565b34801561028c57600080fd5b5061020461029b36600461258e565b61096a565b3480156102ac57600080fd5b506099545b6040519081526020016101e8565b3480156102cb57600080fd5b506102df6102da36600461254b565b610a75565b6040516101e891906125c3565b3480156102f857600080fd5b50610204610307366004612692565b610a9b565b34801561031857600080fd5b506102b1610327366004612564565b610acd565b34801561033857600080fd5b50610204610347366004612692565b610b63565b34801561035857600080fd5b5061020461036736600461254b565b610b7e565b34801561037857600080fd5b506102b161038736600461254b565b610baf565b34801561039857600080fd5b506102df6103a73660046126be565b610c42565b3480156103b857600080fd5b506102486103c736600461254b565b610cc4565b3480156103d857600080fd5b506102b16103e73660046126ea565b610d24565b3480156103f857600080fd5b50610204610daa565b34801561040d57600080fd5b506102df61041c36600461254b565b610dbe565b34801561042d57600080fd5b5060fb546001600160a01b0316610248565b34801561044b57600080fd5b5061021b610ea4565b34801561046057600080fd5b5061020461046f36600461254b565b610eb3565b34801561048057600080fd5b5061020461048f366004612705565b610f2e565b3480156104a057600080fd5b506102046104af366004612741565b610f39565b3480156104c057600080fd5b506102046104cf3660046127c9565b61107b565b3480156104e057600080fd5b5061021b6104ef36600461254b565b6110ad565b34801561050057600080fd5b506101dc61050f366004612839565b6001600160a01b039182166000908152606a6020908152604080832093909416825291909152205460ff1690565b34801561054957600080fd5b506102046105583660046126ea565b611113565b34801561056957600080fd5b5033600090815261013060205260409020546102b1565b600061058b82611198565b92915050565b67016345785d8a000080348111156106165760405162461bcd60e51b815260206004820152603760248201527f47696674436172644e46543a20676966742063617264206e6565647320746f2060448201527f68617665206174206c6561737420302e31204d6174696300000000000000000060648201526084015b60405180910390fd5b34600061062361012d5490565b905061063461012d80546001019055565b61063e88826111bd565b604080516101408101825282815260208082018581528284018b8152606084018b9052608084018a90523360a0850152600060c0850181905260e08501819052426101008601526001610120860181905287825261012f855295902084518155915194820194909455925180519293926106be9260028501920190612251565b50606082015180516106da916003840191602090910190612251565b50608082015180516106f6916004840191602090910190612251565b5060a082015160058201805460c085015160e08601511515600160a81b0260ff60a81b19911515600160a01b026001600160a81b03199093166001600160a01b039095169490941791909117169190911790556101008201516006820155610120909101516007909101805491151560ff1990921691909117905533600090815261013060209081526040822080546001810182559083529120015550505050505050565b6060606580546107aa90612863565b80601f01602080910402602001604051908101604052809291908181526020018280546107d690612863565b80156108235780601f106107f857610100808354040283529160200191610823565b820191906000526020600020905b81548152906001019060200180831161080657829003601f168201915b5050505050905090565b6000610838826111d7565b506000908152606960205260409020546001600160a01b031690565b600061085f82610cc4565b9050806001600160a01b0316836001600160a01b031614156108cd5760405162461bcd60e51b815260206004820152602160248201527f4552433732313a20617070726f76616c20746f2063757272656e74206f776e656044820152603960f91b606482015260840161060d565b336001600160a01b03821614806108e957506108e9813361050f565b61095b5760405162461bcd60e51b815260206004820152603e60248201527f4552433732313a20617070726f76652063616c6c6572206973206e6f7420746f60448201527f6b656e206f776e6572206e6f7220617070726f76656420666f7220616c6c0000606482015260840161060d565b6109658383611236565b505050565b6109726112a4565b816001600160a01b031661098584610cc4565b6001600160a01b0316146109db5760405162461bcd60e51b815260206004820181905260248201527f47696674436172644e46543a2063616c6c6572206973206e6f74206f776e6572604482015260640161060d565b60006109e6846112fe565b905081816020015111610a505760405162461bcd60e51b815260206004820152602c60248201527f47696674436172644e46543a2074784665652063616e6e6f742065786365656460448201526b0819da599d08185b5bdd5b9d60a21b606482015260840161060d565b8181602001818151610a6291906128b4565b905250610a6f818461159d565b50505050565b610a7d6122d5565b6000610a893384610acd565b9050610a94816112fe565b9392505050565b610aa6335b826116fc565b610ac25760405162461bcd60e51b815260040161060d906128cb565b61096583838361177a565b6000610ad883610d24565b8210610b3a5760405162461bcd60e51b815260206004820152602b60248201527f455243373231456e756d657261626c653a206f776e657220696e646578206f7560448201526a74206f6620626f756e647360a81b606482015260840161060d565b506001600160a01b03919091166000908152609760209081526040808320938352929052205490565b6109658383836040518060200160405280600081525061107b565b610b8733610aa0565b610ba35760405162461bcd60e51b815260040161060d906128cb565b610bac81611921565b50565b6000610bba60995490565b8210610c1d5760405162461bcd60e51b815260206004820152602c60248201527f455243373231456e756d657261626c653a20676c6f62616c20696e646578206f60448201526b7574206f6620626f756e647360a01b606482015260840161060d565b60998281548110610c3057610c30612919565b90600052602060002001549050919050565b610c4a6122d5565b610c526112a4565b816001600160a01b0316610c6584610cc4565b6001600160a01b031614610cbb5760405162461bcd60e51b815260206004820152601f60248201527f47696674436172644e46543a206f776e6572206973206e6f742076616c696400604482015260640161060d565b610a94836112fe565b6000818152606760205260408120546001600160a01b03168061058b5760405162461bcd60e51b8152602060048201526018602482015277115490cdcc8c4e881a5b9d985b1a59081d1bdad95b88125160421b604482015260640161060d565b60006001600160a01b038216610d8e5760405162461bcd60e51b815260206004820152602960248201527f4552433732313a2061646472657373207a65726f206973206e6f7420612076616044820152683634b21037bbb732b960b91b606482015260840161060d565b506001600160a01b031660009081526068602052604090205490565b610db26112a4565b610dbc60006119c8565b565b610dc66122d5565b3360009081526101306020908152604080832080548251818502810185019093528083529192909190830182828015610e1e57602002820191906000526020600020905b815481526020019060010190808311610e0a575b5050505050905082815111610e755760405162461bcd60e51b815260206004820181905260248201527f47696674436172644e46543a20676966742063617264206e6f7420666f756e64604482015260640161060d565b6000818481518110610e8957610e89612919565b60200260200101519050610e9c816112fe565b949350505050565b6060606680546107aa90612863565b33610ebd82610cc4565b6001600160a01b031614610f135760405162461bcd60e51b815260206004820181905260248201527f47696674436172644e46543a2063616c6c6572206973206e6f74206f776e6572604482015260640161060d565b6000610f1e826112fe565b9050610f2a813361159d565b5050565b610f2a338383611a1a565b600054610100900460ff1615808015610f595750600054600160ff909116105b80610f735750303b158015610f73575060005460ff166001145b610fd65760405162461bcd60e51b815260206004820152602e60248201527f496e697469616c697a61626c653a20636f6e747261637420697320616c72656160448201526d191e481a5b9a5d1a585b1a5e995960921b606482015260840161060d565b6000805460ff191660011790558015610ff9576000805461ff0019166101001790555b6110038383611ae9565b61100b611b1a565b611013611b41565b61101b611b1a565b835161102f9061012e906020870190612251565b508015610a6f576000805461ff0019169055604051600181527f7f26b83ff96e1f2b6a682f133852f6798a09c465da95921460cefb38474024989060200160405180910390a150505050565b61108533836116fc565b6110a15760405162461bcd60e51b815260040161060d906128cb565b610a6f84848484611b70565b60606110b8826111d7565b60006110c2611ba3565b905060008151116110e25760405180602001604052806000815250610a94565b806110ec84611bb3565b6040516020016110fd92919061292f565b6040516020818303038152906040529392505050565b61111b6112a4565b6001600160a01b0381166111805760405162461bcd60e51b815260206004820152602660248201527f4f776e61626c653a206e6577206f776e657220697320746865207a65726f206160448201526564647265737360d01b606482015260840161060d565b610bac816119c8565b6001600160a01b03163b151590565b60006001600160e01b0319821663780e9d6360e01b148061058b575061058b82611cb1565b610f2a828260405180602001604052806000815250611d01565b6000818152606760205260409020546001600160a01b0316610bac5760405162461bcd60e51b8152602060048201526018602482015277115490cdcc8c4e881a5b9d985b1a59081d1bdad95b88125160421b604482015260640161060d565b600081815260696020526040902080546001600160a01b0319166001600160a01b038416908117909155819061126b82610cc4565b6001600160a01b03167f8c5be1e5ebec7d5bd14f71427d1e84f3dd0314c0f7b2291e5b200ac8c7c3b92560405160405180910390a45050565b60fb546001600160a01b03163314610dbc5760405162461bcd60e51b815260206004820181905260248201527f4f776e61626c653a2063616c6c6572206973206e6f7420746865206f776e6572604482015260640161060d565b6113066122d5565b600061012f600084815260200190815260200160002060405180610140016040529081600082015481526020016001820154815260200160028201805461134c90612863565b80601f016020809104026020016040519081016040528092919081815260200182805461137890612863565b80156113c55780601f1061139a576101008083540402835291602001916113c5565b820191906000526020600020905b8154815290600101906020018083116113a857829003601f168201915b505050505081526020016003820180546113de90612863565b80601f016020809104026020016040519081016040528092919081815260200182805461140a90612863565b80156114575780601f1061142c57610100808354040283529160200191611457565b820191906000526020600020905b81548152906001019060200180831161143a57829003601f168201915b5050505050815260200160048201805461147090612863565b80601f016020809104026020016040519081016040528092919081815260200182805461149c90612863565b80156114e95780601f106114be576101008083540402835291602001916114e9565b820191906000526020600020905b8154815290600101906020018083116114cc57829003601f168201915b505050918352505060058201546001600160a01b038116602083015260ff600160a01b8204811615156040840152600160a81b90910481161515606083015260068301546080830152600790920154909116151560a090910152610120810151909150151560011461058b5760405162461bcd60e51b815260206004820181905260248201527f47696674436172644e46543a20676966742063617264206e6f7420666f756e64604482015260640161060d565b602082015160c0830151156116135760405162461bcd60e51b815260206004820152603660248201527f47696674436172644e46543a2063616e6e6f7420756e7772617020616c726561604482015275191e481d5b9ddc985c1c19590819da599d0818d85c9960521b606482015260840161060d565b8251600090815261012f6020526040808220600501805460ff60a01b1916600160a01b17905584518252808220600101829055518391906001600160a01b0383169084908381818185875af1925050503d806000811461168f576040519150601f19603f3d011682016040523d82523d6000602084013e611694565b606091505b50509050806116f55760405162461bcd60e51b815260206004820152602760248201527f47696674436172644e46543a206661696c656420746f20756e77726170206769604482015266199d0818d85c9960ca1b606482015260840161060d565b5050505050565b60008061170883610cc4565b9050806001600160a01b0316846001600160a01b0316148061174f57506001600160a01b038082166000908152606a602090815260408083209388168352929052205460ff165b80610e9c5750836001600160a01b03166117688461082d565b6001600160a01b031614949350505050565b826001600160a01b031661178d82610cc4565b6001600160a01b0316146117f15760405162461bcd60e51b815260206004820152602560248201527f4552433732313a207472616e736665722066726f6d20696e636f72726563742060448201526437bbb732b960d91b606482015260840161060d565b6001600160a01b0382166118535760405162461bcd60e51b8152602060048201526024808201527f4552433732313a207472616e7366657220746f20746865207a65726f206164646044820152637265737360e01b606482015260840161060d565b61185e838383611d34565b611869600082611236565b6001600160a01b03831660009081526068602052604081208054600192906118929084906128b4565b90915550506001600160a01b03821660009081526068602052604081208054600192906118c090849061295e565b909155505060008181526067602052604080822080546001600160a01b0319166001600160a01b0386811691821790925591518493918716917fddf252ad1be2c89b69c2b068fc378daa952ba7f163c4a11628f55a4df523b3ef91a4505050565b600061192c82610cc4565b905061193a81600084611d34565b611945600083611236565b6001600160a01b038116600090815260686020526040812080546001929061196e9084906128b4565b909155505060008281526067602052604080822080546001600160a01b0319169055518391906001600160a01b038416907fddf252ad1be2c89b69c2b068fc378daa952ba7f163c4a11628f55a4df523b3ef908390a45050565b60fb80546001600160a01b038381166001600160a01b0319831681179093556040519116919082907f8be0079c531659141344cd1fd0a4f28419497f9722a3daafe3b4186f6b6457e090600090a35050565b816001600160a01b0316836001600160a01b03161415611a7c5760405162461bcd60e51b815260206004820152601960248201527f4552433732313a20617070726f766520746f2063616c6c657200000000000000604482015260640161060d565b6001600160a01b038381166000818152606a6020908152604080832094871680845294825291829020805460ff191686151590811790915591519182527f17307eab39ab6107e8899845ad3d59bd9653f200f220920489ca2b5937696c31910160405180910390a3505050565b600054610100900460ff16611b105760405162461bcd60e51b815260040161060d90612976565b610f2a8282611d3f565b600054610100900460ff16610dbc5760405162461bcd60e51b815260040161060d90612976565b600054610100900460ff16611b685760405162461bcd60e51b815260040161060d90612976565b610dbc611d8d565b611b7b84848461177a565b611b8784848484611dbd565b610a6f5760405162461bcd60e51b815260040161060d906129c1565b606061012e80546107aa90612863565b606081611bd75750506040805180820190915260018152600360fc1b602082015290565b8160005b8115611c015780611beb81612a13565b9150611bfa9050600a83612a44565b9150611bdb565b60008167ffffffffffffffff811115611c1c57611c1c61239b565b6040519080825280601f01601f191660200182016040528015611c46576020820181803683370190505b5090505b8415610e9c57611c5b6001836128b4565b9150611c68600a86612a58565b611c7390603061295e565b60f81b818381518110611c8857611c88612919565b60200101906001600160f81b031916908160001a905350611caa600a86612a44565b9450611c4a565b60006001600160e01b031982166380ac58cd60e01b1480611ce257506001600160e01b03198216635b5e139f60e01b145b8061058b57506301ffc9a760e01b6001600160e01b031983161461058b565b611d0b8383611ebb565b611d186000848484611dbd565b6109655760405162461bcd60e51b815260040161060d906129c1565b610965838383612009565b600054610100900460ff16611d665760405162461bcd60e51b815260040161060d90612976565b8151611d79906065906020850190612251565b508051610965906066906020840190612251565b600054610100900460ff16611db45760405162461bcd60e51b815260040161060d90612976565b610dbc336119c8565b60006001600160a01b0384163b15611eb057604051630a85bd0160e11b81526001600160a01b0385169063150b7a0290611e01903390899088908890600401612a6c565b6020604051808303816000875af1925050508015611e3c575060408051601f3d908101601f19168201909252611e3991810190612aa9565b60015b611e96573d808015611e6a576040519150601f19603f3d011682016040523d82523d6000602084013e611e6f565b606091505b508051611e8e5760405162461bcd60e51b815260040161060d906129c1565b805181602001fd5b6001600160e01b031916630a85bd0160e11b149050610e9c565b506001949350505050565b6001600160a01b038216611f115760405162461bcd60e51b815260206004820181905260248201527f4552433732313a206d696e7420746f20746865207a65726f2061646472657373604482015260640161060d565b6000818152606760205260409020546001600160a01b031615611f765760405162461bcd60e51b815260206004820152601c60248201527f4552433732313a20746f6b656e20616c7265616479206d696e74656400000000604482015260640161060d565b611f8260008383611d34565b6001600160a01b0382166000908152606860205260408120805460019290611fab90849061295e565b909155505060008181526067602052604080822080546001600160a01b0319166001600160a01b03861690811790915590518392907fddf252ad1be2c89b69c2b068fc378daa952ba7f163c4a11628f55a4df523b3ef908290a45050565b6001600160a01b0383166120645761205f81609980546000838152609a60205260408120829055600182018355919091527f72a152ddfb8e864297c917af52ea6c1c68aead0fee1a62673fcc7e0c94979d000155565b612087565b816001600160a01b0316836001600160a01b0316146120875761208783826120c1565b6001600160a01b03821661209e576109658161215e565b826001600160a01b0316826001600160a01b03161461096557610965828261220d565b600060016120ce84610d24565b6120d891906128b4565b60008381526098602052604090205490915080821461212b576001600160a01b03841660009081526097602090815260408083208584528252808320548484528184208190558352609890915290208190555b5060009182526098602090815260408084208490556001600160a01b039094168352609781528383209183525290812055565b609954600090612170906001906128b4565b6000838152609a60205260408120546099805493945090928490811061219857612198612919565b9060005260206000200154905080609983815481106121b9576121b9612919565b6000918252602080832090910192909255828152609a909152604080822084905585825281205560998054806121f1576121f1612ac6565b6001900381819060005260206000200160009055905550505050565b600061221883610d24565b6001600160a01b039093166000908152609760209081526040808320868452825280832085905593825260989052919091209190915550565b82805461225d90612863565b90600052602060002090601f01602090048101928261227f57600085556122c5565b82601f1061229857805160ff19168380011785556122c5565b828001600101855582156122c5579182015b828111156122c55782518255916020019190600101906122aa565b506122d1929150612337565b5090565b604051806101400160405280600081526020016000815260200160608152602001606081526020016060815260200160006001600160a01b03168152602001600015158152602001600015158152602001600081526020016000151581525090565b5b808211156122d15760008155600101612338565b6001600160e01b031981168114610bac57600080fd5b60006020828403121561237457600080fd5b8135610a948161234c565b80356001600160a01b038116811461239657600080fd5b919050565b634e487b7160e01b600052604160045260246000fd5b600067ffffffffffffffff808411156123cc576123cc61239b565b604051601f8501601f19908116603f011681019082821181831017156123f4576123f461239b565b8160405280935085815286868601111561240d57600080fd5b858560208301376000602087830101525050509392505050565b600082601f83011261243857600080fd5b610a94838335602085016123b1565b6000806000806080858703121561245d57600080fd5b6124668561237f565b9350602085013567ffffffffffffffff8082111561248357600080fd5b61248f88838901612427565b945060408701359150808211156124a557600080fd5b6124b188838901612427565b935060608701359150808211156124c757600080fd5b506124d487828801612427565b91505092959194509250565b60005b838110156124fb5781810151838201526020016124e3565b83811115610a6f5750506000910152565b600081518084526125248160208601602086016124e0565b601f01601f19169290920160200192915050565b602081526000610a94602083018461250c565b60006020828403121561255d57600080fd5b5035919050565b6000806040838503121561257757600080fd5b6125808361237f565b946020939093013593505050565b6000806000606084860312156125a357600080fd5b833592506125b36020850161237f565b9150604084013590509250925092565b602081528151602082015260208201516040820152600060408301516101408060608501526125f661016085018361250c565b91506060850151601f1980868503016080870152612614848361250c565b935060808701519150808685030160a087015250612632838261250c565b92505060a085015161264f60c08601826001600160a01b03169052565b5060c085015180151560e08601525060e08501516101006126738187018315159052565b8601516101208681019190915290950151151593019290925250919050565b6000806000606084860312156126a757600080fd5b6126b08461237f565b92506125b36020850161237f565b600080604083850312156126d157600080fd5b823591506126e16020840161237f565b90509250929050565b6000602082840312156126fc57600080fd5b610a948261237f565b6000806040838503121561271857600080fd5b6127218361237f565b91506020830135801515811461273657600080fd5b809150509250929050565b60008060006060848603121561275657600080fd5b833567ffffffffffffffff8082111561276e57600080fd5b61277a87838801612427565b9450602086013591508082111561279057600080fd5b61279c87838801612427565b935060408601359150808211156127b257600080fd5b506127bf86828701612427565b9150509250925092565b600080600080608085870312156127df57600080fd5b6127e88561237f565b93506127f66020860161237f565b925060408501359150606085013567ffffffffffffffff81111561281957600080fd5b8501601f8101871361282a57600080fd5b6124d4878235602084016123b1565b6000806040838503121561284c57600080fd5b6128558361237f565b91506126e16020840161237f565b600181811c9082168061287757607f821691505b6020821081141561289857634e487b7160e01b600052602260045260246000fd5b50919050565b634e487b7160e01b600052601160045260246000fd5b6000828210156128c6576128c661289e565b500390565b6020808252602e908201527f4552433732313a2063616c6c6572206973206e6f7420746f6b656e206f776e6560408201526d1c881b9bdc88185c1c1c9bdd995960921b606082015260800190565b634e487b7160e01b600052603260045260246000fd5b600083516129418184602088016124e0565b8351908301906129558183602088016124e0565b01949350505050565b600082198211156129715761297161289e565b500190565b6020808252602b908201527f496e697469616c697a61626c653a20636f6e7472616374206973206e6f74206960408201526a6e697469616c697a696e6760a81b606082015260800190565b60208082526032908201527f4552433732313a207472616e7366657220746f206e6f6e20455243373231526560408201527131b2b4bb32b91034b6b83632b6b2b73a32b960711b606082015260800190565b6000600019821415612a2757612a2761289e565b5060010190565b634e487b7160e01b600052601260045260246000fd5b600082612a5357612a53612a2e565b500490565b600082612a6757612a67612a2e565b500690565b6001600160a01b0385811682528416602082015260408101839052608060608201819052600090612a9f9083018461250c565b9695505050505050565b600060208284031215612abb57600080fd5b8151610a948161234c565b634e487b7160e01b600052603160045260246000fdfea2646970667358221220ad08aa33f257a48c6f1c160499024fbb31210495f825f5c918ea960ebcf317ab64736f6c634300080c0033",
  "linkReferences": {},
  "deployedLinkReferences": {}
}